:020000040800F2
:20000000800C002081620008D5590008D7590008D9590008DB590008DD5900080000000027
:20002000000000000000000000000000DF590008E159000800000000E3590008E5590008B4
:20004000D9620008DD620008E1620008E5620008E9620008ED620008A75B0008F562000869
:20006000F9620008FD6200080163000805630008096300080D6300081163000815630008F2
:20008000196300081D63000821630008000000000000000000000000000000002563000838
:2000A000296300082D6300083163000835630008396300083D630008416300084563000830
:2000C000496300084D6300085163000855630008596300085D6300086163000800000000E0
:2000E0006563000869630008B75B000800000000000000000000000000000000EB2200082D
:20010000000000007563000879630008F322000800000000000000000000000000000000FE
:200120008163000885630008896300088D63000891630008000000000000000000000000FB
:20014000000000000000000000000000E15B0008996300089D630008A1630008A563000833
:20016000A9630008AD63000800000000000000000000000000000000000000000000000053
:2001800000000000B163000870B584B000240025002600208DF8040040208DF805000720C1
:2001A0008DF8060000208DF80A0000208DF8080000208DF8090008208DF8070001A800F05D
:2001C000E5FD80208DF8000010208DF8010000208DF8020000208DF8030000A800F005FE78
:2001E0001E2001F091FBDFF8280B4FF4FA710160E4B2002C4DD1DFF8180B0068002848D0A9
:20020000DFF8100B00F0AAFCDFF8080B90ED000ABDEEC00A10EE100A40B200280AD5DFF888
:20022000F40A90ED000ABDEEC00A10EE100A40B2454207E0DFF8DC0A90ED000ABDEEC00A93
:2002400010EE105ADFF8CC0A90ED020ABDEEC00A10EE100A40B200280AD5DFF8B80A90ED64
:20026000020ABDEEC00A10EE100A40B2464207E0DFF8A00A90ED020ABDEEC00A10EE106A8D
:20028000EDB2062D02DAF6B2062EB1DB01200400AEE7E4B2002C10D0002001F0B5FB00200B
:2002A00001F027FC0028FAD0002001F022FC0128FAD0002001F0B2FB01E001F039FB7FBD16
:2002C0001FB50024DFF8500A00788DF8010008208DF8040000208DF8050007208DF80600EA
:2002E00030208DF8070000208DF8080000208DF8090010208DF80A0001A801F01BFC002037
:200300008DF80C0000208DF80D0003A801F03FFC102001F058FC012220210DF1010001F0FA
:200320006BFC0122202100A801F085FC1E2001F0EBFA01220F2100A801F07DFC9DF80000CA
:20034000D42802D001F0F4FA01E001200400E4B2002C10D0002001F057FB002001F0C9FB10
:200360000028FAD0002001F0C4FB0128FAD0002001F054FB01E001F0DBFA1FBD00B583B0FD
:2003800001210D2001F0D4FD2020009001208DF8040000208DF8060000208DF80700022059
:2003A0008DF8050000A9DFF8740901F031FE2021DFF8680901F090FE0120009001208DF837
:2003C000040000208DF8060000208DF8070002208DF8050000A9DFF8480901F019FE4FF4FA
:2003E0000070009000208DF8040000208DF8060000208DF8070002208DF8050000A9DFF8D1
:20040000240901F005FE0121DFF8140901F064FE012001F079FA4FF40071DFF8080901F040
:200420004CFE002801D101F083FA4FF48060009000208DF8040000208DF8060001208DF85D
:20044000070002208DF8050000A9DFF8D80801F0DFFD012001F058FA4FF48061DFF8C40891
:2004600001F02BFE002801D101F062FA0121DFF8B00801F02FFE4FF4C050009000208DF8C4
:20048000040000208DF8060001208DF8070002208DF8050000A9DFF88C0801F0B9FD4FF456
:2004A0000070009001208DF8040000208DF8060001208DF8070002208DF8050000A9DFF80E
:2004C000640801F0A5FD4FF40071DFF8580801F003FE012001F018FA4FF40061DFF8440855
:2004E00001F0EBFD002807D04FF48051DFF8340801F0E3FD002801D101F01AFA4FF480501A
:20050000009000208DF8040000208DF8060001208DF8070002208DF8050000A9DFF8040812
:2005200001F076FD4FF40060009001208DF8040000208DF8060001208DF8070002208DF87B
:20054000050000A9DFF8DC0701F062FD4FF40061DFF8D00701F0C0FD012001F0D5F94FF4C0
:200560008051DFF8C00701F0A8FD002801D101F0DFF94FF40060009000208DF804000020B7
:200580008DF8060001208DF8070002208DF8050000A9DFF8900701F03BFD4FF48050009094
:2005A00001208DF8040000208DF8060001208DF8070002208DF8050000A9DFF8680701F0AD
:2005C00027FD4FF48051DFF85C0701F085FD012001F09AF94FF40061DFF8480701F06DFD6C
:2005E000002801D101F0A4F94FF40070009001208DF8040000208DF8060000208DF807002F
:2006000002208DF8050000A9DFF8180701F000FD4FF40071DFF80C0701F05CFD002001F0A8
:20062000F3F94FF4F050009000208DF8040000208DF8060001208DF8070002208DF805000E
:2006400000A9DFF8E00601F0E3FC002001F051FA0028FAD0002001F04CFA0028FAD10020AC
:2006600001F0DCF94FF40071DFF8B80601F034FD2021DFF8A80601F02DFD4FF48061DFF86D
:20068000A40601F01AFD002801D001F051F94FF4C050009000208DF8040000208DF806003D
:2006A00002208DF8070002208DF8050000A9DFF8740601F0ADFC4FF40070009001208DF863
:2006C000040000208DF8060001208DF8070002208DF8050000A9DFF84C0601F099FC4FF477
:2006E0000071DFF8400601F0F5FC012001F00CF94FF40061DFF82C0601F0DFFC002807D0FB
:200700004FF48051DFF81C0601F0D7FC002801D101F00EF94FF49050009000208DF80400BA
:2007200000208DF8060002208DF8070002208DF8050000A9DFF8EC0501F06AFC4FF4006049
:20074000009001208DF8040000208DF8060001208DF8070002208DF8050000A9DFF8C40512
:2007600001F056FC4FF40061DFF8B80501F0B2FC012001F0C9F84FF40071DFF8A80501F063
:200780009CFC002807D04FF48051DFF8980501F094FC002801D101F0CBF84FF420600090B8
:2007A00000208DF8040000208DF8060002208DF8070002208DF8050000A9DFF8680501F0AD
:2007C00027FC4FF48050009001208DF8040000208DF8060001208DF8070002208DF80500A5
:2007E00000A9DFF8400501F013FC4FF48051DFF8340501F06FFC012001F086F84FF4007170
:20080000DFF8200501F059FC002807D04FF40061DFF8100501F051FC002801D101F088F85E
:200820004FF4C050009000208DF8040000208DF8060002208DF8070002208DF8050000A97E
:20084000DFF8E00401F0E4FB4FF40070009001208DF8040000208DF8060001208DF80700C8
:2008600002208DF8050000A9DFF8B80401F0D0FB4FF40071DFF8AC0401F02EFC07BD1CB5E9
:20088000002401214FF4807001F07FFB01F05AFC4BF680325721022001F085FC002801D035
:2008A00001F046F8DFF8800400210160DFF878045FF440314160DFF8700400218160DFF850
:2008C00068044FF47061C160DFF85C0402F0C3F8DFF8580402F0B0F8DFF850045FF00071DB
:2008E0000160DFF8480401210171DFF8400400214171DFF8380400218160DFF830040021B1
:200900000161DFF8280402210175DFF82014DFF8200402F069F80420009002208DF8050020
:2009200003208DF8040000208DF8070000A9DFF8F40301F06DFB0820009000A9DFF8E40370
:2009400001F066FBDFF8EC0300210180DFF8E80300210180002004000221DFF8D40302F092
:20096000FAF8032301220221DFF8C40302F09AF8032302220321DFF8B80302F093F8012158
:20098000DFF8AC0302F078F8DFF884034FF4FA710160E4B2002C53D1DFF87403006800283E
:2009A0004ED0DFF88C0302F0E5F81421DFF8800302F0E5F8DFF8841308801821DFF870030D
:2009C00002F0DDF8DFF878130880DFF870030088972811DBDFF8680300880A280CDADFF830
:2009E00054030088B0F5FA7F06D0DFF848030088401CDFF840130880DFF8400300880A2898
:200A000011DADFF83C03008897280CDBDFF828030088B0F5FA7F06D0DFF81C030088401C4F
:200A2000DFF814130880C3480088B0F5FA7FB0D1C1480088B0F5FA7FABD101200400A8E71F
:200A40000021BB4802F018F8E4B2002C01D100F06FFF002000F0D8FF002001F04AF800281C
:200A6000FAD0002000F0DAFF13BD30B587B00024002501214FF4804001F078FA01210620BE
:200A800001F056FA02208DF8040000208DF8060001208DF8070001208DF805004FF4806044
:200AA000009000A9A74801F0B3FA05220A21A54801F01BFB0820009000A9994801F0A8FA55
:200AC00005220321964801F010FB9F4802F078F84FF47A4004901020ADF80A000020ADF873
:200AE0000C000020ADF814004FF44070ADF808000020ADF80E0002A9934802F0D7F8012135
:200B0000914802F0BFF90A2000F0FEFE80484FF4FA710160EDB21E2D18DA7D480068002834
:200B200014D00121884802F0D5F9002803D1784800680028F5D1844802F0B2F90400A4B24A
:200B40004FF6FF708442E5D16D1CE3E7EDB21E2D01D000F0EDFE07B030BD000070B52DED99
:200B6000028B86B004000026B7EE008A00AB02222321322000F05BF901AB06222821322041
:200B800000F055F99DF80100400602D54020050001E0102005009DF80000400603D59DF8A1
:200BA0000100400619D500200600F6B2032E2EDAF6B201A810EB460040780002F6B201A95B
:200BC00011F8161001FA80F0EDB290FBF5F0F6B203A921F81600761CE7E700200600F6B2BB
:200BE000032E14DAF6B201A810F816000002F6B201A911EB4601497801FA80F0EDB290FB7A
:200C0000F5F0F6B203A921F81600761CE7E700AB02222321322000F00AF99DF801004006D8
:200C200004D5B5EE000AB0EE408A20E09DF8000010F03000C0B2002806D0102809D0202838
:200C40000CD030280FD012E0B7EE000AB0EE408A0DE0B6EE000AB0EE408A08E0B5EE000AE0
:200C6000B0EE408A03E09FED290AB0EE408A00200600F6B2032E10DAF6B203A830F9160087
:200C800000EE100AB8EEC00A80EE080AF6B214EB860080ED000A761CEBE706B0BDEC028B68
:200CA00070BD7047002029490988002915D128490988284A32F81110080025490988491CF3
:200CC000234A118022490988302902D1204900220A801E4901220A8014E01F4909881D4A71
:200CE00032F8111008001C490988491C1A4A118019490988302902D1174900220A801349CA
:200D000000220A8080B27047000000009FCDAA3D3C08002004080020F25D0008000C0240B6
:200D200000080240000002401C080020EC07002000200140700800206E0800206A080020AF
:200D40006C08002000040240003800407408002072080020F860000878010020FEE710B469
:200D600050F8041B81B102681218001D50F8043BDC0744BFA9F10104E31852F8044B43F84E
:200D8000044B091FF9D1EBE710BC704710B582B0040000208DF8010000208DF8000000F087
:200DA000CAFA9DF80100217862781143A278114308438DF801009DF8000021796279114375
:200DC000A2791143E278114308438DF800000DF1010301222021322000F0B9F900AB0122FE
:200DE0002321322000F0B3F913BD10B582B0040000AB01222121322000F019F89DF80000FE
:200E000010F00C008DF800009DF80000217862781143A2781143E278114308438DF80000F9
:200E200000AB01222121322000F091F913BDF0B583B004000D0016001F004FF420400090B5
:200E400000F026FA4FF4204000900121DFF8100602F00CF9DFF80C16DFF8040602F041F943
:200E6000002806D10098411E00910028F2D100206CE14FF42040009000222100C9B2DFF8CB
:200E8000E00502F00FF9DFF8E015DFF8D40502F028F900280BD10098411E00910028F2D16D
:200EA000DFF8C815DFF8B80502F06BF9CAE70121DFF8AC0502F0CCF82900C9B2DFF8A00563
:200EC00002F009F94FF420400090DFF8A415DFF8900502F006F9002806D10098411E009177
:200EE0000028F2D1002031E1B6B2012E53D10121DFF86C0502F0BAF8DFF86815DFF860057C
:200F000002F0EFF80028F7D001222100C9B2DFF8500502F0C7F84FF420400090DFF85415FA
:200F2000DFF83C0502F00AF900280BD10098411E00910028F2D1DFF83415DFF8240502F01B
:200F400020F9D4E70021DFF8180502F0B6F872B6DFF82405008880B201900121DFF8000597
:200F600002F092F862B6DFF8F80402F0D6F84006F9D5DFF8EC0402F0B1F83870DFF8E00471
:200F8000008880B28005F9D40121DFF8D40402F094F80120DAE0B6B2022E58D10121DFF861
:200FA000C00402F063F8DFF8BC14DFF8B40402F098F80028F7D001222100C9B2DFF8A0043F
:200FC00002F070F8DFF8980440F6014101804FF420400090DFF89C14DFF8840402F0AEF89A
:200FE00000280BD10098411E00910028F2D1DFF87C14DFF86C0402F0C4F8CFE772B6DFF869
:00000001FF
